:010A070022CC
:10094E0012096DEF4E600312088E12098AEF4E6087
:0F095E00031208001209A7EF4E60031209E122ED
:0809FF00120A0712094E80FBE9
:10096D0020B1167F147E0012092E30B1FD7F147E4A
:0D097D000012092E7E007F0122E4FEFF2201
:10098A0020B0167F147E0012092E30B0FD7F147E2F
:0D099A000012092E7E007F0222E4FEFF22E3
:1009A70020B2167F147E0012092E30B2FD7F147E0E
:0D09B7000012092E7E007F0322E4FEFF22C5
:1009C40020B3167F147E0012092E30B3FD7F147EEF
:0D09D4000012092E7E007F0422E4FEFF22A7
:10088E00750800750903E4F50AF50BAF0BAE09A860
:10089E0007EE088002C333D8FCF4F5A012096DEF01
:1008AE004E6024E50B6406450A60F17402250BF5D3
:1008BE000BE4350AF50AAF0BAE09A807EE08800265
:1008CE00C333D8FCF4F5A01209C4EF4E60CE75A068
:0508DE00FF7E007F0118
:0108E30022F2
:10080000C2A07FF47E011208E4EF4E60028075D230
:10081000A0C2A27FF47E011208E4EF4E6002806461
:10082000D2A2C2A47FF47E011208E4EF4E600280DF
:1008300053D2A4C2A67FF47E011208E4EF4E6002F8
:100840008042D2A6C2A17FF47E011208E4EF4E607E
:10085000028031D2A1C2A37FF47E011208E4EF4EE0
:1008600060028020D2A3C2A57FF47E011208E4EFCB
:100870004E6002800FD2A5C2A77FF47E011208E469
:0E088000EF4E60057E007F0222D2A702080024
:1009E100E4F5A07FD07E0712092E75A0FF7E007F5F
:0209F1000322DF
:0408E4008E088F09E2
:1008E800E4F50AF50BC3E50B9509E50A95085032BE
:1008F800E4F50CF50D20B00F75A0FF7FE87E03121C
:10090800092E7E007F0222050DE50D7002050CC33D
:10091800944BE50C940040DD050BE50B70C7050A08
:0509280080C3E4FEFFA6
:01092D0022A7
:10092E00E4FDFCC3ED9FEC9E5015E4FBFA0BBB00FF
:0F093E00010AEB64784A70F50DBD00010C80E4EE
:01094D002287
:030000000209F3FF
:0C09F300787FE4F6D8FD75810D0209FF45
:00000001FF
