:100A2200EF1FAA0670011E4A60107C007D55ED1D65
:0A0A3200AA0470011C4A60E880F479
:010A3C002297
:040A5400020C00147C
:10096C00750800750903E4F50AF50BAF0BAE09A881
:10097C0007EE088002C333D8FCF4F5A020B135AFE4
:10098C000DAE0C120A2230B1FDAF0DAE0C120A22C4
:10099C00E50B6406450A60E47402250BF50BE4359F
:1009AC000AF50AAF0BAE09A807EE088002C333D8CC
:1009BC00FCF4F5A020B3C5AF0DAE0C120A2230B377
:0F09CC00FDAF0DAE0C120A2275A0FF7E007F0159
:0109DB0022F9
:10080000C2A07FF47E01120A22D2A020B00DAF0D4B
:10081000AE0C120A2230B0FD0208D4C2A27FF47ED0
:1008200001120A22D2A220B00DAF0DAE0C120A2284
:1008300030B0FD0208D4C2A47FF47E01120A22D295
:10084000A420B00DAF0DAE0C120A2230B0FD02088C
:10085000D4C2A67FF47E01120A22D2A620B00CAF29
:100860000DAE0C120A2230B0FD8069C2A17FF47E69
:1008700001120A22D2A120B00CAF0DAE0C120A2236
:1008800030B0FD804FC2A37FF47E01120A22D2A3B2
:1008900020B00CAF0DAE0C120A2230B0FD8035C274
:1008A000A57FF47E01120A22D2A520B00CAF0DAEB6
:1008B0000C120A2230B0FD801BC2A77FF47E011209
:1008C0000A22D2A730B003020800AF0DAE0C120A04
:1008D0002230B0FDAF0DAE0C120A227E007F022244
:100A3D00E4F5A07FD07E07120A2275A0FF7E007F0D
:020A4D00032282
:1009DC0020B114AF0DAE0C120A2230B1FDAF0DAE2A
:1009EC000C120A2212096C20B014AF0DAE0C120AB4
:1009FC002230B0FDAF0DAE0C120A2212080020B24C
:100A0C0014AF0DAE0C120A2230B2FDAF0DAE0C12AB
:060A1C000A22120A3D222D
:050A4F001209DC80FB30
:030000000208E013
:0C08E000787FE4F6D8FD75810D02092731
:1008EC00020A4FE493A3F8E493A34003F68001F2C9
:1008FC0008DFF48029E493A3F85407240CC8C3330D
:10090C00C4540F4420C8834004F456800146F6DFDB
:10091C00E4800B0102040810204080900A54E47E0D
:10092C00019360BCA3FF543F30E509541FFEE493D0
:10093C00A360010ECF54C025E060A840B8E493A397
:10094C00FAE493A3F8E493A3C8C582C8CAC583CAC2
:10095C00F0A3C8C582C8CAC583CADFE9DEE780BE7A
:010A5800009D
:00000001FF
