:10088C007D017F071208B87D027F061208B87D0330
:07089C007F051208B880E996
:1008A300EF1FAA0670011E4A600A7D55AC051DECB8
:0408B30060EE80F87B
:0108B700221E
:1008C900021200010A083F065B4F666D7D077F6FC4
:0E08DA00EF1392A2EFA2E192A3A2E292A42257
:1008B8001208DA74082DF8E6F580AF13AE120208B4
:0108C800A38C
:03000000020800F3
:0C080000787FE4F6D8FD758113020847EC
:10080C0002088CE493A3F8E493A34003F68001F26E
:10081C0008DFF48029E493A3F85407240CC8C333ED
:10082C00C4540F4420C8834004F456800146F6DFBC
:10083C00E4800B01020408102040809008C9E47E7B
:10084C00019360BCA3FF543F30E509541FFEE493B1
:10085C00A360010ECF54C025E060A840B8E493A378
:10086C00FAE493A3F8E493A3C8C582C8CAC583CAA3
:10087C00F0A3C8C582C8CAC583CADFE9DEE780BE5B
:0108D900001E
:00000001FF
