:1008C800021200140A083F065B4F666D7D077F6FB2
:0408AF007F027E0046
:1008B300EF1FAA0670011E4A600A7D55AC051DECA8
:0408C30060EE80F86B
:0108C700220E
:0E08D900EF1392A2EFA2E192A3A2E292A42258
:10088C007F071208D98509801208AF7F061208D994
:10089C00850A801208AF7F051208D9850B801208D3
:0308AC00AF80DD3D
:03000000020800F3
:0C080000787FE4F6D8FD758113020847EC
:10080C0002088CE493A3F8E493A34003F68001F26E
:10081C0008DFF48029E493A3F85407240CC8C333ED
:10082C00C4540F4420C8834004F456800146F6DFBC
:10083C00E4800B01020408102040809008C8E47E7C
:10084C00019360BCA3FF543F30E509541FFEE493B1
:10085C00A360010ECF54C025E060A840B8E493A378
:10086C00FAE493A3F8E493A3C8C582C8CAC583CAA3
:10087C00F0A3C8C582C8CAC583CADFE9DEE780BE5B
:0108D800001F
:00000001FF
