:0708F40002090014010801D4
:0408DB00AF0AAE09A9
:1008DF00EF1FAA0670011E4A600A7D55AC051DEC7C
:0408EF0060EE80F83F
:0108F30022E2
:10088C00E4FBF8E508088002C333D8FCF4F5A0209B
:10089C00B11B1208DB30B1FD1208DBEB60F11BA8B9
:1008AC0003E508088002C333D8FCF4F5A020B0DFC0
:1008BC001208DB30B0FD1208DBEB640760D10BA82B
:0F08CC0003E508088002C333D8FCF4F5A080C010
:03000000020800F3
:0C080000787FE4F6D8FD75810A020847F5
:10080C0002088CE493A3F8E493A34003F68001F26E
:10081C0008DFF48029E493A3F85407240CC8C333ED
:10082C00C4540F4420C8834004F456800146F6DFBC
:10083C00E4800B01020408102040809008F4E47E50
:10084C00019360BCA3FF543F30E509541FFEE493B1
:10085C00A360010ECF54C025E060A840B8E493A378
:10086C00FAE493A3F8E493A3C8C582C8CAC583CAA3
:10087C00F0A3C8C582C8CAC583CADFE9DEE780BE5B
:0108FB0000FC
:00000001FF
