:100CE300EF1FAA0670011E4A600A7D55AC051DEC74
:040CF30060EE80F837
:010CF70022DA
:040D2400022B00019D
:100C4000C3EF648094A050037F2022D3EF6480948C
:100C5000FF40037F2022EF24F7600B14600824FD7F
:0A0C60006004240D70037F2022229F
:100CCB00C2A6C2A58F80D2A7AF2CAE2B120CE3C24B
:080CDB00A7AF2CAE2B020CE3C5
:030CB0002430FFEE
:100CB300D2A6C2A58F80D2A7AF2CAE2B120CE3C253
:080CC300A7AF2CAE2B020CE3DD
:100C92008F1C8D1DE51CB40105E51D148009E51CA2
:0E0CA200B4020AE51D243F4480FF120CCB2251
:100CF8007F38120CCB7F0C120CCB7F06120CCB7FEB
:040D080001020CCB0D
:020D0C008B2F2B
:0B0D0E00120C92AF2F120C40020CB32D
:060C15008B138A148915FF
:100C1B00120C92E4F516AB13AA14A915851682755E
:100C2B00830012098AFF600C120C408F17120CB351
:040C3B00051680E238
:010C3F002292
:080B31008F138A158B16A9052C
:100B3900751900751A01751801E518C39517501331
:100B4900AE19AF1A7C007D0A1209B78E198F1A05E2
:100B59001880E6AD01AF13120C92E4F518E518C33D
:100B69009517502CAC19AD1AAE15AF161209C97CE0
:100B7900007D0A1209C98D1BE51B120CB0AE19AF15
:100B89001A7C007D0A1209C98E198F1A051880CDA1
:010B99002239
:040AAA008A0A8B0B1E
:100AAE00750E00750F01120C92C3E50A64809480D6
:100ABE00400D7F2B120CB3850A11850B1280107F0F
:100ACE002D120CB3C3E4950BF512E4950AF51175CE
:100ADE000D01E50DC3950C5013AE0EAF0F7C007DCE
:100AEE000A1209B78E0E8F0F050D80E6E4F50DE59F
:100AFE000DC3950C502CAC0EAD0FAE11AF121209EA
:100B0E00C97C007D0A1209C98D10E510120CB0AE19
:100B1E000EAF0F7C007D0A1209C98E0E8F0F050DC8
:020B2E0080CD78
:010B300022A2
:040B9A008A208B2101
:100B9E00120C92E4F523E523C395225034E522147A
:100BAE00C3952325E025E0FFAE20E521A8070880A8
:100BBE0005CEC313CE13D8F9540FF524C3940AE50A
:100BCE00245004243080022437FF120CB3052380F6
:010BDE00C551
:010BDF0022F3
:040BE0008A278B28AD
:100BE400120C92E4F52AE52AC395295023E5291429
:100BF400C3952AFFAE27E528A807088005CEC313AE
:100C0400CE13D8F954012430FF120CB3052A80D630
:010C140022BD
:0B0D19004D6174726978204B65790011
:100C6A00120CF87BFF7A0D79197D017F01120C15A0
:100C7A001208008F30E53060F7FB7A007517027DA5
:080C8A00017F02120B3180E82A
:040D2800022D001484
:10080000E4F5137590FFC293209714AF2EAE2D120E
:100810000CE33097FDAF2EAE2D120CE375130120C3
:100820009614AF2EAE2D120CE33097FDAF2EAE2DE9
:10083000120CE3751305209514AF2EAE2D120CE3A8
:100840003097FDAF2EAE2D120CE3751309209414D2
:10085000AF2EAE2D120CE33097FDAF2EAE2D120C45
:10086000E375130D7590FFC292209714AF2EAE2D35
:10087000120CE33097FDAF2EAE2D120CE375130270
:10088000209614AF2EAE2D120CE33097FDAF2EAE96
:100890002D120CE3751306209514AF2EAE2D120CFD
:1008A000E33097FDAF2EAE2D120CE375130A2094A2
:1008B00014AF2EAE2D120CE33097FDAF2EAE2D12DD
:1008C0000CE375130E7590FFC291209714AF2EAEF6
:1008D0002D120CE33097FDAF2EAE2D120CE37513E5
:1008E00003209614AF2EAE2D120CE33097FDAF2EE1
:1008F000AE2D120CE3751307209514AF2EAE2D12FA
:100900000CE33097FDAF2EAE2D120CE375130B20C8
:100910009414AF2EAE2D120CE33097FDAF2EAE2DFA
:10092000120CE375130F7590FFC290209714AF2E31
:10093000AE2D120CE33097FDAF2EAE2D120CE375E9
:100940001304209614AF2EAE2D120CE33097FDAF9A
:100950002EAE2D120CE3751308209514AF2EAE2D7C
:10096000120CE33097FDAF2EAE2D120CE375130C75
:10097000209414AF2EAE2D120CE33097FDAF2EAEA7
:090980002D120CE3751310AF13E6
:01098900224B
:03000000020A1ED3
:0C0A1E00787FE4F6D8FD758130020A658F
:10098A00BB010CE58229F582E5833AF583E0225022
:10099A0006E92582F8E622BBFE06E92582F8E2226C
:0D09AA00E58229F582E5833AF583E4932286
:1009B700EF8DF0A4A8F0CF8CF0A428CE8DF0A42E54
:0209C700FE220E
:1009C900BC000BBE0029EF8DF084FFADF022E4CC12
:1009D900F875F008EF2FFFEE33FEEC33FCEE9DECDB
:1009E900984005FCEE9DFE0FD5F0E9E4CEFD22ED21
:1009F900F8F5F0EE8420D21CFEADF075F008EF2F6B
:100A0900FFED33FD4007985006D5F0F222C398FD5B
:050A19000FD5F0EA22F8
:100A2A00020C6AE493A3F8E493A34003F68001F26C
:100A3A0008DFF48029E493A3F85407240CC8C333CD
:100A4A00C4540F4420C8834004F456800146F6DF9C
:100A5A00E4800B0102040810204080900D24E47EFB
:100A6A00019360BCA3FF543F30E509541FFEE49391
:100A7A00A360010ECF54C025E060A840B8E493A358
:100A8A00FAE493A3F8E493A3C8C582C8CAC583CA83
:100A9A00F0A3C8C582C8CAC583CADFE9DEE780BE3B
:010D2C0000C6
:00000001FF
