:0E0B7A0048656C6C6F2C20776F726C642100E4
:100AE000120B667BFF7A0B797A7D017F01120A8BEC
:100AF0007517057B397A307D017F021209A780FEC8
:040B9500022B00012E
:100AB600C3EF648094A050037F2022D3EF64809418
:100AC600FF40037F2022EF24F7600B14600824FD0B
:0A0AD6006004240D70037F2022222B
:100B3900C2A6C2A58F80D2A7AF2CAE2B120B51C271
:080B4900A7AF2CAE2B020B51EB
:030B1E002430FF81
:100B2100D2A6C2A58F80D2A7AF2CAE2B120B51C279
:080B3100A7AF2CAE2B020B5103
:100B00008F1C8D1DE51CB40105E51D148009E51C35
:0E0B1000B4020AE51D243F4480FF120B392277
:100B66007F38120B397F0C120B397F06120B397F37
:040B760001020B3934
:020B88008B2DB3
:0B0B8A00120B00AF2D120AB6020B2167
:060A8B008B138A1489158B
:100A9100120B00E4F516AB13AA14A915851682757D
:100AA1008300120800FF600C120AB68F17120B2187
:040AB100051680E2C4
:010AB500221E
:0809A7008F138A158B16A905B8
:1009AF00751900751A01751801E518C395175013BD
:1009BF00AE19AF1A7C007D0A12082D8E198F1A05F9
:1009CF001880E6AD01AF13120B00E4F518E518C35C
:1009DF009517502CAC19AD1AAE15AF1612083F7CF7
:1009EF00007D0A12083F8D1BE51B120B1EAE19AFBF
:1009FF001A7C007D0A12083F8E198F1A051880CDB8
:010A0F0022C4
:040920008A0A8B0BA9
:10092400750E00750F01120B00C3E50A64809480F4
:10093400400D7F2B120B21850A11850B1280107F2D
:100944002D120B21C3E4950BF512E4950AF51175EC
:100954000D01E50DC3950C5013AE0EAF0F7C007D59
:100964000A12082D8E0E8F0F050D80E6E4F50DE5B5
:100974000DC3950C502CAC0EAD0FAE11AF12120876
:100984003F7C007D0A12083F8D10E510120B1EAE4D
:100994000EAF0F7C007D0A12083F8E0E8F0F050DDF
:0209A40080CD04
:0109A600222E
:040A10008A208B218C
:100A1400120B00E4F523E523C395225034E5221498
:100A2400C3952325E025E0FFAE20E521A807088033
:100A340005CEC313CE13D8F9540FF524C3940AE595
:100A4400245004243080022437FF120B2105238014
:010A5400C5DC
:010A5500227E
:040A56008A278B2838
:100A5A00120B00E4F52AE52AC395295023E5291447
:100A6A00C3952AFFAE27E528A807088005CEC31339
:100A7A00CE13D8F954012430FF120B21052A80D64F
:010A8A002249
:100B5100EF1FAA0670011E4A600A7D55AC051DEC07
:040B610060EE80F8CA
:010B6500226D
:030000000208945F
:0C089400787FE4F6D8FD75812D0208DBAA
:10080000BB010CE58229F582E5833AF583E02250AD
:1008100006E92582F8E622BBFE06E92582F8E222F7
:0D082000E58229F582E5833AF583E4932211
:10082D00EF8DF0A4A8F0CF8CF0A428CE8DF0A42EDF
:02083D00FE2299
:10083F00BC000BBE0029EF8DF084FFADF022E4CC9D
:10084F00F875F008EF2FFFEE33FEEC33FCEE9DEC66
:10085F00984005FCEE9DFE0FD5F0E9E4CEFD22EDAC
:10086F00F8F5F0EE8420D21CFEADF075F008EF2FF6
:10087F00FFED33FD4007985006D5F0F222C398FDE7
:05088F000FD5F0EA2284
:1008A000020AE0E493A3F8E493A34003F68001F284
:1008B00008DFF48029E493A3F85407240CC8C33359
:1008C000C4540F4420C8834004F456800146F6DF28
:1008D000E4800B0102040810204080900B95E47E18
:1008E000019360BCA3FF543F30E509541FFEE4931D
:1008F000A360010ECF54C025E060A840B8E493A3E4
:10090000FAE493A3F8E493A3C8C582C8CAC583CA0E
:10091000F0A3C8C582C8CAC583CADFE9DEE780BEC6
:010B9900005B
:00000001FF
