:100DB200EF1FAA0670011E4A600A7D55AC051DECA4
:040DC20060EE80F867
:010DC600220A
:040DE80002300001D4
:100D2000C3EF648094A050037F2022D3EF648094AB
:100D3000FF40037F2022EF24F7600B14600824FD9E
:0A0D40006004240D70037F202222BE
:100D8300C2A6C2A58F80D2A7AF31AE30120DB2C2B8
:080D9300A7AF31AE30020DB232
:030D68002430FF35
:100D6B00D2A6C2A58F80D2A7AF31AE30120DB2C2C0
:080D7B00A7AF31AE30020DB24A
:100D4A008F1C8D1DE51CB40105E51D148009E51CE9
:0E0D5A00B4020AE51D243F4480FF120D8322DF
:100DC7007F38120D837F0C120D837F06120D837FF0
:040DD70001020D8385
:020DDB008B3457
:0B0DDD00120D4AAF34120D20020D6B06
:060CF5008B138A1489151F
:100CFB00120D4AE4F516AB13AA14A91585168275C5
:100D0B008300120A6AFF600C120D208F17120D6BF5
:040D1B00051680E257
:010D1F0022B1
:080C11008F138A158B16A9054B
:100C1900751900751A01751801E518C39517501350
:100C2900AE19AF1A7C007D0A120A978E198F1A0520
:100C39001880E6AD01AF13120D4AE4F518E518C3A3
:100C49009517502CAC19AD1AAE15AF16120AA97C1E
:100C5900007D0A120AA98D1BE51B120D68AE19AF9A
:100C69001A7C007D0A120AA98E198F1A051880CDDF
:010C79002258
:040B8A008A0A8B0B3D
:100B8E00750E00750F01120D4AC3E50A648094803C
:100B9E00400D7F2B120D6B850A11850B1280107F75
:100BAE002D120D6BC3E4950BF512E4950AF5117534
:100BBE000D01E50DC3950C5013AE0EAF0F7C007DED
:100BCE000A120A978E0E8F0F050D80E6E4F50DE5DD
:100BDE000DC3950C502CAC0EAD0FAE11AF12120A08
:100BEE00A97C007D0A120AA98D10E510120D68AEBF
:100BFE000EAF0F7C007D0A120AA98E0E8F0F050D07
:020C0E0080CD97
:010C100022C1
:040C7A008A208B2120
:100C7E00120D4AE4F523E523C395225034E52214E0
:100C8E00C3952325E025E0FFAE20E521A8070880C7
:100C9E0005CEC313CE13D8F9540FF524C3940AE529
:100CAE00245004243080022437FF120D6B0523805C
:010CBE00C570
:010CBF002212
:040CC0008A278B28CC
:100CC400120D4AE4F52AE52AC395295023E529148F
:100CD400C3952AFFAE27E528A807088005CEC313CD
:100CE400CE13D8F954012430FF120D6B052A80D697
:010CF40022DD
:100D9B0050617373776F7264004F6B0020200045B6
:070DAB0072720020202000FD
:10098A00120DC77BFF7A0D799B7D017F01120CF551
:10099A00E4020A331208008F2FE52F60F7D3940A76
:1009AA005035C3E52C9404E52B94005028AE2DAFA6
:1009BA002E7C007D0A120A978E2D8F2EE52F75F058
:1009CA000A84E5F0252EF52EE4352DF52D052CE5C6
:1009DA002C7002052B8056E52F640B7061E52E649E
:1009EA00297004E52D64097BFF701A7A0D79A47DBC
:1009FA000E7F01120CF57FD07E07120DB27BFF7AB3
:100A0A000D79A780187A0D79AA7D0E7F01120CF54F
:100A1A007FD07E07120DB27BFF7A0D79AE7D0E7FF5
:100A2A0001120CF5E4F52DF52EF52BF52C751704AE
:100A3A00AB2EAA2D7D017F02120C1102099EE52F11
:100A4A00640C600302099EF52DF52EF52BF52C7525
:100A5A001704AB2EAA2D7D017F02120C1102099EEA
:040DEC0002320014BB
:10080000E4F5137590FFC293209714AF33AE321204
:100810000DB23097FDAF33AE32120DB27513012019
:100820009614AF33AE32120DB23097FDAF33AE3205
:10083000120DB2751305209514AF33AE32120DB2FE
:100840003097FDAF33AE32120DB2751309209414F8
:10085000AF33AE32120DB23097FDAF33AE32120D60
:10086000B275130D7590FFC292209714AF33AE325C
:10087000120DB23097FDAF33AE32120DB2751302C6
:10088000209614AF33AE32120DB23097FDAF33AEB7
:1008900032120DB2751306209514AF33AE32120D1D
:1008A000B23097FDAF33AE32120DB275130A2094F9
:1008B00014AF33AE32120DB23097FDAF33AE3212F9
:1008C0000DB275130E7590FFC291209714AF33AE21
:1008D00032120DB23097FDAF33AE32120DB2751336
:1008E00003209614AF33AE32120DB23097FDAF3302
:1008F000AE32120DB2751307209514AF33AE32121B
:100900000DB23097FDAF33AE32120DB275130B201E
:100910009414AF33AE32120DB23097FDAF33AE3216
:10092000120DB275130F7590FFC290209714AF335C
:10093000AE32120DB23097FDAF33AE32120DB2753A
:100940001304209614AF33AE32120DB23097FDAFC0
:1009500033AE32120DB2751308209514AF33AE3298
:10096000120DB23097FDAF33AE32120DB275130CCB
:10097000209414AF33AE32120DB23097FDAF33AEC8
:0909800032120DB2751310AF1311
:01098900224B
:03000000020AFEF3
:0C0AFE00787FE4F6D8FD758134020B45CA
:100A6A00BB010CE58229F582E5833AF583E0225041
:100A7A0006E92582F8E622BBFE06E92582F8E2228B
:0D0A8A00E58229F582E5833AF583E49322A5
:100A9700EF8DF0A4A8F0CF8CF0A428CE8DF0A42E73
:020AA700FE222D
:100AA900BC000BBE0029EF8DF084FFADF022E4CC31
:100AB900F875F008EF2FFFEE33FEEC33FCEE9DECFA
:100AC900984005FCEE9DFE0FD5F0E9E4CEFD22ED40
:100AD900F8F5F0EE8420D21CFEADF075F008EF2F8A
:100AE900FFED33FD4007985006D5F0F222C398FD7B
:050AF9000FD5F0EA2218
:100B0A0002098AE493A3F8E493A34003F68001F26E
:100B1A0008DFF48029E493A3F85407240CC8C333EC
:100B2A00C4540F4420C8834004F456800146F6DFBB
:100B3A00E4800B0102040810204080900DE8E47E56
:100B4A00019360BCA3FF543F30E509541FFEE493B0
:100B5A00A360010ECF54C025E060A840B8E493A377
:100B6A00FAE493A3F8E493A3C8C582C8CAC583CAA2
:100B7A00F0A3C8C582C8CAC583CADFE9DEE780BE5A
:010DF0000002
:00000001FF
