:100D8200EF1FAA0670011E4A600A7D55AC051DECD4
:040D920060EE80F897
:010D9600223A
:040DC80002300001F4
:100D0700C3EF648094A050037F2022D3EF648094C4
:100D1700FF40037F2022EF24F7600B14600824FDB7
:0A0D27006004240D70037F202222D7
:100D6A00C2A6C2A58F80D2A7AF31AE30120D82C201
:080D7A00A7AF31AE30020D827B
:030D4F002430FF4E
:100D5200D2A6C2A58F80D2A7AF31AE30120D82C209
:080D6200A7AF31AE30020D8293
:100D31008F1C8D1DE51CB40105E51D148009E51C02
:0E0D4100B4020AE51D243F4480FF120D6A2211
:100D97007F38120D6A7F0C120D6A7F06120D6A7F6B
:040DA70001020D6ACE
:020DBB008B3477
:0B0DBD00120D31AF34120D07020D5271
:060CDC008B138A14891538
:100CE200120D31E4F516AB13AA14A91585168275F7
:100CF2008300120A51FF600C120D078F17120D525A
:040D0200051680E270
:010D060022CA
:080BF8008F138A158B16A90565
:100C0000751900751A01751801E518C39517501369
:100C1000AE19AF1A7C007D0A120A7E8E198F1A0552
:100C20001880E6AD01AF13120D31E4F518E518C3D5
:100C30009517502CAC19AD1AAE15AF16120A907C50
:100C4000007D0A120A908D1BE51B120D4FAE19AFE5
:100C50001A7C007D0A120A908E198F1A051880CD11
:010C60002271
:040B71008A0A8B0B56
:100B7500750E00750F01120D31C3E50A648094806E
:100B8500400D7F2B120D52850A11850B1280107FA7
:100B95002D120D52C3E4950BF512E4950AF5117566
:100BA5000D01E50DC3950C5013AE0EAF0F7C007D06
:100BB5000A120A7E8E0E8F0F050D80E6E4F50DE50F
:100BC5000DC3950C502CAC0EAD0FAE11AF12120A21
:100BD500907C007D0A120A908D10E510120D4FAE23
:100BE5000EAF0F7C007D0A120A908E0E8F0F050D39
:020BF50080CDB1
:010BF70022DB
:040C61008A208B2139
:100C6500120D31E4F523E523C395225034E5221412
:100C7500C3952325E025E0FFAE20E521A8070880E0
:100C850005CEC313CE13D8F9540FF524C3940AE542
:100C9500245004243080022437FF120D520523808E
:010CA500C589
:010CA600222B
:040CA7008A278B28E5
:100CAB00120D31E4F52AE52AC395295023E52914C1
:100CBB00C3952AFFAE27E528A807088005CEC313E6
:100CCB00CE13D8F954012430FF120D52052A80D6C9
:010CDB0022F6
:100DAB0050617373776F7264004F6B004572720002
:10098A00120D977BFF7A0D79AB7D017F01120CDC8A
:10099A00E480651208008F2FE52F60F7D3940A5080
:1009AA0035C3E52C9404E52B94005068AE2DAF2E88
:1009BA007C007D0A120A7E8E2D8F2EE52F75F00A95
:1009CA0084E5F0252EF52EE4352DF52D052CE52CA4
:1009DA007002052B803EE52F640B7049E52EB42981
:1009EA001DE52DB409187BFF7A0D79B47D0E7F01C0
:1009FA00120CDCE4F52DF52EF52BF52C80167BFF79
:100A0A007A0D79B77D0E7F01120CDCE4F52DF52EF7
:100A1A00F52BF52C751704AB2EAA2D7D017F02123A
:100A2A000BF802099DE52F640C600302099DF52D60
:100A3A00F52EF52BF52C751704AB2EAA2D7D017F0B
:070A4A0002120BF802099DE6
:040DCC0002320014DB
:10080000E4F5137590FFC293209714AF33AE321204
:100810000D823097FDAF33AE32120D827513012079
:100820009614AF33AE32120D823097FDAF33AE3235
:10083000120D82751305209514AF33AE32120D825E
:100840003097FDAF33AE32120D8275130920941428
:10085000AF33AE32120D823097FDAF33AE32120D90
:100860008275130D7590FFC292209714AF33AE328C
:10087000120D823097FDAF33AE32120D8275130226
:10088000209614AF33AE32120D823097FDAF33AEE7
:1008900032120D82751306209514AF33AE32120D4D
:1008A000823097FDAF33AE32120D8275130A209459
:1008B00014AF33AE32120D823097FDAF33AE321229
:1008C0000D8275130E7590FFC291209714AF33AE51
:1008D00032120D823097FDAF33AE32120D82751396
:1008E00003209614AF33AE32120D823097FDAF3332
:1008F000AE32120D82751307209514AF33AE32124B
:100900000D823097FDAF33AE32120D8275130B207E
:100910009414AF33AE32120D823097FDAF33AE3246
:10092000120D8275130F7590FFC290209714AF338C
:10093000AE32120D823097FDAF33AE32120D82759A
:100940001304209614AF33AE32120D823097FDAFF0
:1009500033AE32120D82751308209514AF33AE32C8
:10096000120D823097FDAF33AE32120D8275130C2B
:10097000209414AF33AE32120D823097FDAF33AEF8
:0909800032120D82751310AF1341
:01098900224B
:03000000020AE50C
:0C0AE500787FE4F6D8FD758134020B2CFC
:100A5100BB010CE58229F582E5833AF583E022505A
:100A610006E92582F8E622BBFE06E92582F8E222A4
:0D0A7100E58229F582E5833AF583E49322BE
:100A7E00EF8DF0A4A8F0CF8CF0A428CE8DF0A42E8C
:020A8E00FE2246
:100A9000BC000BBE0029EF8DF084FFADF022E4CC4A
:100AA000F875F008EF2FFFEE33FEEC33FCEE9DEC13
:100AB000984005FCEE9DFE0FD5F0E9E4CEFD22ED59
:100AC000F8F5F0EE8420D21CFEADF075F008EF2FA3
:100AD000FFED33FD4007985006D5F0F222C398FD94
:050AE0000FD5F0EA2231
:100AF10002098AE493A3F8E493A34003F68001F288
:100B010008DFF48029E493A3F85407240CC8C33305
:100B1100C4540F4420C8834004F456800146F6DFD4
:100B2100E4800B0102040810204080900DC8E47E8F
:100B3100019360BCA3FF543F30E509541FFEE493C9
:100B4100A360010ECF54C025E060A840B8E493A390
:100B5100FAE493A3F8E493A3C8C582C8CAC583CABB
:100B6100F0A3C8C582C8CAC583CADFE9DEE780BE73
:010DD0000022
:00000001FF
