:0408BF000208001417
:10088C00EF1FAA0670011E4A60107C007D55ED1DFD
:0A089C00AA0470011C4A60E880F411
:0108A600222F
:1008A70020B1FDAF09AE0812088C30B1FDAF09AE1B
:0808B7000812088CB2A080E8D1
:03000000020800F3
:0C080000787FE4F6D8FD758109020847F6
:10080C000208A7E493A3F8E493A34003F68001F253
:10081C0008DFF48029E493A3F85407240CC8C333ED
:10082C00C4540F4420C8834004F456800146F6DFBC
:10083C00E4800B01020408102040809008BFE47E85
:10084C00019360BCA3FF543F30E509541FFEE493B1
:10085C00A360010ECF54C025E060A840B8E493A378
:10086C00FAE493A3F8E493A3C8C582C8CAC583CAA3
:10087C00F0A3C8C582C8CAC583CADFE9DEE780BE5B
:0108C3000034
:00000001FF
