:0408DD00020801F418
:0408BE00AF09AE08C8
:1008C200EF1FAA0670011E4A60107C007D55ED1DC7
:0A08D200AA0470011C4A60E880F4DB
:0108DC0022F9
:10088C0075A0FE1208BE75A0FD1208BE75A0FB1265
:10089C0008BE75A0F71208BE75A0EF1208BE75A0B1
:1008AC00DF1208BE75A0BF1208BE75A07F1208BE6D
:0208BC0080CEEC
:03000000020800F3
:0C080000787FE4F6D8FD758109020847F6
:10080C0002088CE493A3F8E493A34003F68001F26E
:10081C0008DFF48029E493A3F85407240CC8C333ED
:10082C00C4540F4420C8834004F456800146F6DFBC
:10083C00E4800B01020408102040809008DDE47E67
:10084C00019360BCA3FF543F30E509541FFEE493B1
:10085C00A360010ECF54C025E060A840B8E493A378
:10086C00FAE493A3F8E493A3C8C582C8CAC583CAA3
:10087C00F0A3C8C582C8CAC583CADFE9DEE780BE5B
:0108E1000016
:00000001FF
