:06095E0068656C6C6F007F
:100928001209147BFF7A09795E7D017F011208B9EB
:0209380080FE3F
:04096400020C000180
:0A08DF00C2A58F80D2A7AF0DAE0CAA
:1008E900EF1FAA0670011E4A600A7D55AC051DEC72
:0408F90060EE80F835
:0108FD0022D8
:0E093A00C2A61208DFC2A7AF0DAE0C0208E97C
:0E094800D2A61208DFC2A7AF0DAE0C0208E95E
:1008FE00A907B90104ED148006B90209ED243F449D
:06090E0080FF12093A22ED
:100914007F3812093A7F0C12093A7F0612093A7F8E
:040924000102093A89
:080956001208FEAF030209487C
:0608B9008B088A09890A80
:1008BF001208FEE4F50BAB08AA09A90A850B82758D
:0F08CF00830012088CFF6007120948050B80E7B1
:0108DE0022F7
:03000000020800F3
:0C080000787FE4F6D8FD75810D020847F2
:10088C00BB010CE58229F582E5833AF583E0225021
:10089C0006E92582F8E622BBFE06E92582F8E2226B
:0D08AC00E58229F582E5833AF583E4932285
:10080C00020928E493A3F8E493A34003F68001F2D1
:10081C0008DFF48029E493A3F85407240CC8C333ED
:10082C00C4540F4420C8834004F456800146F6DFBC
:10083C00E4800B0102040810204080900964E47EDF
:10084C00019360BCA3FF543F30E509541FFEE493B1
:10085C00A360010ECF54C025E060A840B8E493A378
:10086C00FAE493A3F8E493A3C8C582C8CAC583CAA3
:10087C00F0A3C8C582C8CAC583CADFE9DEE780BE5B
:01096800008E
:00000001FF
