:0D09C60048656C6C6F2C00776F726C6400DC
:100942001209967BFF7A0979C67D017F0112091986
:0F0952007BFF7A0979CD7D017F0212091980FEA2
:0409DE000211000101
:1008EF00C3EF648094A050037F2022D3EF648094E1
:1008FF00FF40037F2022EF24F7600B14600824FDD4
:09090F006004240D70037F202216
:0109180022BC
:0A096100C2A58F80D2A7AF12AE111D
:10096B00EF1FAA0670011E4A600A7D55AC051DECEF
:04097B0060EE80F8B2
:01097F002255
:0E09AA00C2A6120961C2A7AF12AE1102096BFC
:0E09B800D2A6120961C2A7AF12AE1102096BDE
:10098000A907B90104ED148006B90209ED243F441A
:0609900080FF1209AA22FB
:100996007F381209AA7F0C1209AA7F061209AA7FBC
:0409A600010209AA97
:0B09D300120980AF031208EF0209B800
:060919008B088A09890A1F
:10091F00120980E4F50BAB08AA09A90A850B8275A9
:10092F0083001208C2FF600A1208EF1209B8050B04
:02093F0080E452
:010941002293
:06088C008B0D8A0E890F9E
:10089200EF33333354F84440FF1209AAE4F510ABA6
:1008A2000DAA0EA90F8510827583001208C2FF12CD
:1008B20009B80510E510C3940840E47F800209AA34
:03000000020800F3
:0C080000787FE4F6D8FD758112020847ED
:1008C200BB010CE58229F582E5833AF583E02250EB
:1008D20006E92582F8E622BBFE06E92582F8E22235
:0D08E200E58229F582E5833AF583E493224F
:10080C00020942E493A3F8E493A34003F68001F2B7
:10081C0008DFF48029E493A3F85407240CC8C333ED
:10082C00C4540F4420C8834004F456800146F6DFBC
:10083C00E4800B01020408102040809009DEE47E65
:10084C00019360BCA3FF543F30E509541FFEE493B1
:10085C00A360010ECF54C025E060A840B8E493A378
:10086C00FAE493A3F8E493A3C8C582C8CAC583CAA3
:10087C00F0A3C8C582C8CAC583CADFE9DEE780BE5B
:0109E2000014
:00000001FF
