:0C089A000A083F065B4F666D7D077F6F0C
:0E088C00EF1392A2EFA2E192A3A2E292A422A5
:0A08A7007F0412088C850E8080FE8D
:03000000020800F3
:0C080000787FE4F6D8FD758111020847EE
:10080C000208A7E493A3F8E493A34003F68001F253
:10081C0008DFF48029E493A3F85407240CC8C333ED
:10082C00C4540F4420C8834004F456800146F6DFBC
:10083C00E4800B010204081020408090089AE47EAA
:10084C00019360BCA3FF543F30E509541FFEE493B1
:10085C00A360010ECF54C025E060A840B8E493A378
:10086C00FAE493A3F8E493A3C8C582C8CAC583CAA3
:10087C00F0A3C8C582C8CAC583CADFE9DEE780BE5B
:0108A6000051
:00000001FF
