:0408DF0002080014F7
:0408C600AF09AE08C0
:1008CA00EF1FAA0670011E4A600A7D55AC051DEC91
:0408DA0060EE80F854
:0108DE0022F7
:10088C00C2A01208C6D2A0C2A11208C6D2A1C2A28E
:10089C001208C6D2A2C2A31208C6D2A3C2A41208BE
:1008AC00C6D2A4C2A51208C6D2A5C2A61208C6D228
:0A08BC00A6C2A71208C6D2A780C684
:03000000020800F3
:0C080000787FE4F6D8FD758109020847F6
:10080C0002088CE493A3F8E493A34003F68001F26E
:10081C0008DFF48029E493A3F85407240CC8C333ED
:10082C00C4540F4420C8834004F456800146F6DFBC
:10083C00E4800B01020408102040809008DFE47E65
:10084C00019360BCA3FF543F30E509541FFEE493B1
:10085C00A360010ECF54C025E060A840B8E493A378
:10086C00FAE493A3F8E493A3C8C582C8CAC583CAA3
:10087C00F0A3C8C582C8CAC583CADFE9DEE780BE5B
:0108E3000014
:00000001FF
